:020000040800F2
:1000000000520020FD020008B92600082D1A000841
:10001000B7260008570600085D2900080000000008
:100020000000000000000000000000003D02000889
:10003000ED0600080000000099020008C326000831
:100040001703000817030008170300081703000828
:100050001703000817030008170300081703000818
:1000600017030008170300081703000859060008C3
:1000700065060008170300081703000817030008A7
:10008000170300081703000817030008000000000A
:10009000000000000000000000000000170300083E
:1000A00017030008170300081703000817030008C8
:1000B0001703000817030008170300083D1A00087B
:1000C000311A000817030008170300081703000877
:1000D00017030008170300081703000800000000BA
:1000E00017030008170300081703000800000000AA
:1000F00000000000000000000000000017030008DE
:100100000000000017030008170300081703000889
:1001100000000000000000000000000000000000DF
:100120001703000817030008170300081703000847
:10013000170300080000000000000000000000009D
:10014000000000000000000000000000170300088D
:100150001703000817030008170300081703000817
:10016000170300081703000800000000000000004B
:10017000000000000000000000000000000000007F
:10018000000000001703000800000000000000004D
:10019000170300081703000800F002F800F03EF80B
:1001A0000AA090E8000C82448344AAF10107DA45D2
:1001B00001D100F033F8AFF2090EBAE80F0013F0E6
:1001C000010F18BFFB1A43F001031847A0410000BC
:1001D000C0410000103A24BF78C878C1FAD852074D
:1001E00024BF30C830C144BF04680C6070470000B1
:1001F0000023002400250026103A28BF78C1FBD830
:10020000520728BF30C148BF0B6070471FB504F0CC
:1002100065F800F081F91FBD10B510BD00F0E2F9DE
:100220001146FFF7F3FF02F037FC00F000FA03B4C9
:10023000FFF7F2FF03BC00F007FA00002C4B19682F
:100240000868B0E8F04F80F30988BFF36F8F4FF074
:10025000000080F311887047000000000848006823
:10026000006880F308884FF0000080F3148862B6BD
:1002700061B6BFF34F8FBFF36F8F00DF00BF00BFCA
:1002800008ED00E0DFF80C00016841F47001016046
:10029000704700BF88ED00E0EFF30980BFF36F8F78
:1002A000134B1A681EF0100F08BF20ED108A20E9CA
:1002B000F04F106009B44FF0500080F31188BFF385
:1002C0004F8FBFF36F8F03F0DBFA4FF0000080F326
:1002D000118809BC19680868B0E8F04F1EF0100FCB
:1002E00008BFB0EC108A80F30988BFF36F8F7047A6
:1002F00018000020EFF30580704700000948804790
:1003000009480047FEE7FEE7FEE7FEE7FEE7FEE7F7
:10031000FEE7FEE7FEE7FEE704480549054A064B0F
:10032000704700007127000899010008004C002068
:1003300000520020004E0020004E002053EA020C24
:1003400000F069802DE9F04B4FF00006002B1FBF35
:10035000B3FA83F503FA05F424FA05F65E4012BFFA
:100360001643B2FA82F502FA05F4C5F120051EBF64
:1003700022FA05FC44EA0C04203556EA044C4FEA04
:10038000144418BF641C4FF000084FF0000990425D
:1003900071EB030C39D3002919BFB1FA81F701FAC7
:1003A00007F6B0FA80F700FA07F6C7F120071EBF7C
:1003B00020FA07FC46EA0C062037B6FBF4FCA7EB54
:1003C0000507103F07F01F0BCBF120060CFA0BFBC3
:1003D0002CFA06F644BFB3460026202FA4BF5E4683
:1003E0004FF0000B5BEA060C08BF4FF0010B19EB56
:1003F0000B09ABFB027C48EB0608C01B06FB02CCDA
:100400000BFB03CC71EB0C01C1E70B4602464146E6
:100410004846BDE8F08B13B54FF000004FF00001E7
:10042000AFF30080BDE81C407047032A40F23080E3
:1004300010F0030C00F0158011F8013BBCF1020F25
:10044000624498BF11F801CB00F8013B38BF11F8A6
:10045000013BA2F1040298BF00F801CB38BF00F8BD
:10046000013B11F0030300F06980083AC0F00880F6
:1004700051F8043B083A51F804CBA0E80810F5E71E
:10048000121D5CBF51F8043B40F8043BAFF3008001
:10049000D20724BF11F8013B11F801CB48BF11F876
:1004A000012B24BF00F8013B00F801CB48BF00F846
:1004B000012B704702F0FF0343EA032242EA0242A3
:1004C00000F070B84FF0000200B51346944696460F
:1004D000203922BFA0E80C50A0E80C50B1F1200157
:1004E000BFF4F7AF090728BFA0E80C5048BF0CC005
:1004F0005DF804EB890028BF40F8042B08BF704763
:1005000048BF20F8022B11F0804F18BF00F8012BD4
:10051000704770477047704770B5064C7C44064D75
:100520007D4403E0206820448047241DAC42F9D17B
:1005300070BD00006C3E00006C3E000010B5203A1B
:10054000C0F00B80B1E81850203AA0E81850B1E88C
:100550001850A0E81850BFF4F5AF5FEA027C24BF42
:10056000B1E81850A0E8185044BF18C918C0BDE839
:1005700010405FEA827C24BF51F8043B40F8043B02
:1005800008BF7047D20728BF31F8023B48BF11F8B7
:10059000012B28BF20F8023B48BF00F8012B704711
:1005A0004FF000020429C0F0128010F0030C3FF459
:1005B0008BAFCCF1040CBCF1020F18BF00F8012B7B
:1005C000A8BF20F8022BA1EB0C01FFF77DBF5FEA6B
:1005D000C17C24BF00F8012B00F8012B48BF00F8B4
:1005E000012B7047754600F02BF8AE4605006946B2
:1005F000534620F00700854618B020B5FFF78CFE63
:10060000BDE820404FF000064FF000074FF0000813
:100610004FF0000B21F00701AC46ACE8C009ACE894
:10062000C009ACE8C009ACE8C0098D46704710B5F8
:100630000446AFF300802046BDE81040FFF7F7BD49
:10064000004870479C4B002001491820ABBEFEE7D4
:10065000260002007047FEE7014800F063B8000082
:1006600078010020014800F05DB80000D8010020AA
:1006700001681823CAB2103AB2FBF3F2054B6FF3CC
:100680000901032A9B5CC36500D9091D81650846E1
:10069000704700003043000810B5014600208B6908
:1006A0008A6A4FF0C07453B1B3F5005F15D072B1D0
:1006B000012A0CD0022A0AD0032A09D104E01AB177
:1006C000012A06D0022A03D1C96AC90100D5012036
:1006D00010BDC96AA142FAD010BD002AF7D0012A84
:1006E000F2D0022AF3D0032AF3D010BD704772B6BD
:1006F000FEE7012002F0E7F9FBE790F83510022948
:1007000003D08021416501207047052180F8351014
:100710000068016821F0010101600020704790F835
:10072000350070472DE9F84304464FF00009CDF835
:10073000009063484FF41651A56D0068B0FBF1F7C7
:100740002E6894F85C10082000FA01F131420FD0B5
:1007500021680A6852070BD50A6822F004020A6071
:1007600094F85C108840A860606D40F001006065FE
:1007700094F85C104FF0010808FA01F0304208D0FC
:1007800021684969090604D5A860606D40F002003F
:10079000606594F85C1004208840304208D02168DD
:1007A0000968890704D5A860606D40F004006065A1
:1007B00094F85C1010208840304218D021680968F5
:1007C000090714D5A86020680168490304D50068AA
:1007D000000308D5A16C07E00168C90503D40168CE
:1007E00021F008010160216C09B12046884794F886
:1007F0005C1020208840304231D021680968C90649
:100800002DD5A86094F8350005282068016806D029
:10081000490347D5006800031DD4616C1CE021F03A
:10082000160101602068416921F080014161206C5E
:1008300008B9A06C20B12068016821F008010160AE
:1008400094F85C103F208840A86084F8358084F8D4
:100850003490216D1FE0E16B09B120468847606D3F
:1008600000282BD0606DC00714D0052084F8350017
:100870002068016821F0010101600098401C00908F
:10088000B84203D820680068C007F6D184F83580E4
:1008900084F83490E16C002910D001B02046BDE806
:1008A000F04308470168C905D5D4016821F010015B
:1008B000016084F8358084F83490CCE7BDE8F88393
:1008C000140000202DE9F041044600F05BF90646D3
:1008D0005CB1022084F83500002584F8345020688B
:1008E000016821F0010101600DE00120BDE8F08107
:1008F00000F048F9801B052805D9202060650320F9
:1009000084F83500F2E720680068C007F0D122685B
:10091000116820480140D4E901031843D4E90336A3
:100920003343184363691843A3691843E3691843C1
:10093000236A18430843616A042903D1D4E90B13DD
:1009400019430843106020684069666A20F0070177
:1009500030460E43012704280CD1A06A0643E06A02
:1009600040B12046FFF798FE20B14020606584F832
:100970003570BAE7206846612046FFF779FE94F8A3
:100980005C203F2191408160656584F835700020CE
:10099000ACE700003F8010F02DE9F84FDFF8B8A178
:1009A0000022012403254FF00F090AF1040BAAF1DC
:1009B000040E00BF0B6804FA02F63340B34273D151
:1009C0000F7907F00307012F01D0022F16D1876896
:1009D0004FEA420805FA08FC27EA0C07D1F80CC0D8
:1009E0000CFA08FC4CEA070CC0F808C04768B7438B
:1009F0000E79C6F3001696403E4346600E79F643E4
:100A0000B6070DD0C768560005FA06FC27EA0C07A2
:100A1000D1F808C00CFA06FC4CEA070CC0F80CC070
:100A20000E7906F00306022E10D1D60800EB8608D8
:100A3000D8F8206057074FEAD76C09FA0CF7BE4385
:100A40000F6907FA0CF73743C8F8207006684FEAB9
:100A5000420C05FA0CF7BE430F7907F0030707FABB
:100A60000CF7374307604E6816F4403F6DD03B4E9D
:100A7000376847F480473760366822F0030706F48A
:100A800080460096364E07EB060CDCF808689707A0
:100A90003F0F09FA07F826EA0806DFF8C880404544
:100AA00003D14FF000081EE04FE0DFF8BC80404566
:100AB00002D14FF0010816E0DFF8B080404502D1C6
:100AC0004FF002080FE0DFF8A880404502D14FF058
:100AD000030808E0DFF89C80404502D14FF004088D
:100AE00001E04FF0070808FA07F848EA0608CCF8D2
:100AF0000888DAF800605746D1F804C09E435FEAE0
:100B0000CC2C00D51E433E60DBF800605F46D1F878
:100B100004C09E435FEA8C2C00D51E433E60DEF885
:100B200000607746D1F804C09E435FEA8C3C00D554
:100B30001E433E60084F083F3E68D1F804C09E4304
:100B40005FEACC3C00D51E433E60521C102AFFF4E5
:100B500031AFBDE8F88F0000083C01404438024046
:100B60000030014000000240000402400008024042
:100B7000000C0240001002400AB181617047090474
:100B8000FBE7000001488068704700000800002073
:100B9000704770472DE9F041016804464A694E6884
:100BA00090F83E000025D743FA0506D4F243D2055B
:100BB00003D46FF4807201254A61B90508D4F1436A
:100BC000C90505D422686FF4007145F00205516132
:100BD000790525D4F143C90522D4638D94F83D10DD
:100BE000226B202808D13BB9212910D029290ED009
:100BF000282901D1212A0AD022686FF4806151612D
:100C000045F00405102806D0402804D008E020460E
:100C100001F0E6FA04E02068016841F40071016027
:100C2000380508D4F043C00505D421686FF400608E
:100C300045F008054861002D07D0206C284320644A
:100C40002046BDE8F04100F05DBFBDE8F0812DE930
:100C5000F047026800215368C66A90F83E4090F859
:100C60003D50102C12D0402C10D0046C002C7DD0A4
:100C70005469E443A6077AD4DE43B60577D4036CFF
:100C800003B19169BDE8F04701F086BA97695169EF
:100C90004FF42A0CC9435FEAC1784FF02A4904D0C7
:100CA00066452AD04E4528D010E0DE43B6050DD467
:100CB000C16A614501D1012103E0C16A494501D101
:100CC0000821C162BDE8F04701F0D0B90E0716D483
:100CD000DE43B60513D4416CC9B21161416B09B151
:100CE000C96B29B9816B002907D0C96B002904D0D1
:100CF0000068416841F400614160BDE8F0878E07FB
:100D000006D4DE43B60503D4BDE8F04701F022B9AE
:100D1000FE43526876074FEA02521DD4002AECDBEC
:100D20000A0608D4DA43520505D4490705D5BDE8BB
:100D3000F04701F0B3B84907DFD4D9438905DCD4C3
:100D4000212D05D0402CD8D1BDE8F04701F0D4B911
:100D5000BDE8F04701F060B8002ACEDB4A060BD4AC
:100D6000DA43520508D4490708D501E00DE00EE04A
:100D7000BDE8F04700F0DCBF4907BED4D943890580
:100D8000BBD4BDE8F04700F069BF916970E7E106A8
:100D900006D4D943890503D4BDE8F04701F062BA0F
:100DA0002821212D27D0292D25D0650655D4DD43B6
:100DB0006D0552D4640752D590F83D30448D002C17
:100DC0009BD01269446A2270426A521C4262428D70
:100DD000521E4285428D002A8FD12A2B8DD1026866
:100DE000536823F4806353602222026380F83D102D
:100DF00000F094F981E7250623D4DD436D0520D466
:100E0000640720D590F83D30448D002CF2D0446A20
:100E100024781461426A521C4262428D521E4285FD
:100E2000428D002AE6D1292BE4D10268536823F4CD
:100E3000806353602122026380F83D1000F06FF957
:100E40005BE76107D6D4D9438905D3D4418D002906
:100E5000D0D0416A097811610AE06107CAD4D94348
:100E60008905C7D4418D0029C4D01169426A117027
:100E7000416A491C4162418D491E41853DE77047E9
:100E800070B5040025D094F83D00002520B984F801
:100E90003C50204600F0BEF8242084F83D00206835
:100EA000016821F0010101602068016841F40041FE
:100EB00001602068016821F40041016000F068FAD7
:100EC0004D4A6168914201D84C4900E04C49884242
:100ED00001D2012070BD4B492368B0FBF1F15E687F
:100EE00026F03F060E435E606368934206D94FF4D6
:100EF000967359434FF47A73B1FBF3F12368491C9D
:100F00001E6A26F03F06314319626168914210D88B
:100F10004900401EB0FBF1F2521CC2F30B02042A3E
:100F200001D2042022E0B0FBF1F0401CC0F30B0022
:100F30001CE0A268F2B301EBC10303EB0116431EF0
:100F4000B3FBF6F35B1C43F480431B0549D092B31B
:100F500001EBC10202EB0111401EB0FBF1F0401C9D
:100F6000C0F30B0040F4804040F400402168CA699F
:100F70004CF6FF739A431043C861D4E9071001434C
:100F80002068026822F0C00211430160D4E9030125
:100F900001432068826848F2FF339A43114381601D
:100FA000D4E9050108432168CA6822F0FF02104312
:100FB000C86001E00EE016E02068016841F0010120
:100FC00001602564202084F83D00256384F83E50AC
:100FD000002070BD01EB4106431EB3FBF6F35B1C22
:100FE000B3E70120C2E701EB4101401EB0FBF1F085
:100FF000401CC0F30B00B7E7A086010080841E00F0
:1010000000093D0040420F0070477047704770472D
:10101000704700002DE9F04387B00646142168466A
:10102000FFF750FA38493068884269D137480024C0
:10103000016841F0020101600068042700F002002D
:1010400005904FF44070009001AA12204FF0030861
:10105000049782E8110169462D48FFF79DFC2B4853
:101060001030016841F40011016000682A4D00F45D
:1010700000100590274828604005C5E901044FF499
:101080008069C5E903496C61AC6105F12000EC6140
:1010900080E89001EC6228462C63FFF713FC08B14E
:1010A000FFF725FBB563AE631B4D1A48603518305A
:1010B000E5E802044020A5E8110245F8144905F1CD
:1010C0002000AC61EC6180E890011348EC62603074
:1010D0002C63FFF7F7FB08B1FFF709FB75630022EC
:1010E00005211F20AE6300F087F81F2000F076F87E
:1010F00000220521202000F07FF8202000F06EF86B
:1011000007B0BDE8F08300000054004030380240D2
:1011100000040240106002407801002070477047D0
:1011200002488168027811448160704708000020FD
:101130000B4810B5016841F400710160016841F489
:1011400080610160016841F480710160032000F05A
:1011500073F80F2000F006F800F024F8002010BD0E
:10116000003C024070B50D4D04464FF47A7128786A
:10117000B1FBF0F00A490968B1FBF0F000F000FBA8
:1011800048B9102C07D200222146501E00F034F836
:1011900000206C6070BD012070BD000008000020C0
:1011A000140000200C4882B0016841F480410160C5
:1011B000006800F4804000900748001F016841F07B
:1011C000805101600068002200F0805000900F21E3
:1011D000901E02B000F010B844380240002809DB2D
:1011E00000F01F02012191404009800000F1E02041
:1011F000C0F8001170470000F0B40E4B1B680C469D
:10120000C3F30223C3F10705042D00D90425191DDA
:10121000072901D2002300E0DB1E012606FA05F1B2
:10122000491E214099409E40761E16403143F0BC35
:1012300001F095BB0CED00E0064900F007020868DC
:101240004FF6FF03184040EA0220034A10430860AB
:10125000704700000CED00E00000FA052DE9F047B2
:101260000E46050065D0DFF81481D8F80000F7B20B
:1012700000F00700B04207D288F80070D8F80000EC
:1012800000F00700B04254D128683D4C810712D5C8
:10129000400703D5206840F4E0502060287800071C
:1012A00003D5206840F4604020602068A96820F0E1
:1012B000F000084320602878C0072DD030496868C6
:1012C0000839012812D0022813D0032811D0096848
:1012D000890700292DDA216821F0030101432160EB
:1012E000FFF750FC814641F2883A0EE00968890315
:1012F000EFE709688901ECE7FFF744FCA0EB09017F
:10130000514502D90320BDE8F0872068696800F0E4
:101310000C00B0EB810FEFD1D8F80010404601F07F
:101320000701B14207D90770006800F00700B0421A
:1013300001D00120E7E72878400705D52068E96853
:1013400020F4E050084320602878000706D5206884
:10135000296920F4604040EAC100206000F028F8CC
:101360002168084AC1F30311515CC840064908606E
:1013700006480068FFF7F6FE0020C4E7003C024084
:101380000838024038430008140000200C000020F8
:101390000448054900680968044AC1F38221515C88
:1013A000C840704714000020083802404843000835
:1013B000154810B5006810F00C02144813D01449F9
:1013C000042A0FD0082A0ED10F4C241F226823684C
:1013D00002F03F025B0207D52068C0F38810A0FB33
:1013E000010106E0084610BD2168C1F38811A1FB88
:1013F00000010023FEF7A2FF2168C1F30141491C4F
:101400004900B0FBF1F010BD083802400024F400A0
:1014100040787D012DE9F84F04006ED02078DFF888
:101420004C93C007A9F104054AD009F104000168F2
:10143000C1F38101012908D00068C0F381000228AE
:101440000AD1D9F80000400206D52868800337D5B4
:1014500060680028E1D033E06068B0F5803F10D0CC
:10146000B0F5A02F286810D020F4803028602868BC
:1014700020F4802028606068A8B1FFF783FB06464F
:101480000DE0286840F48030F4E740F480202860C4
:10149000F7E700BFFFF776FB801B642873D8286846
:1014A0008003F7D50CE0FFF76DFB064605E000BFB3
:1014B000FFF768FB801B6428F0D828688003F7D406
:1014C0002078DFF8AC8280074FF0000A3ED5A748AD
:1014D000001D016811F00C0F08D00068C0F38100F6
:1014E00002280BD1D9F80000400207D428688007F1
:1014F00016D5E068012800D112E033E1E068B8B108
:101500000120C8F80000FFF73DFB064605E000BFDC
:10151000FFF738FB801B0228C0D828688007F7D562
:101520002868216920F0F80040EAC10028600DE039
:10153000C8F800A0FFF726FB064604E0FFF722FBF1
:10154000801B02281FD828688007F7D4207800075E
:1015500022D5864F87486169703771B101210160DA
:10156000FFF710FB064604E0FFF70CFB801B022888
:1015700009D838688007F7D50EE0C0F800A0FFF75B
:1015800001FB064605E082E0FFF7FCFA801B02281B
:101590007DD838688007F7D42078400768D5DFF811
:1015A000CCB100270BF13C0BDBF80000C0000BD4E2
:1015B000DBF8001041F08051CBF80010DBF80000A0
:1015C000012700F0805000906B4E3068C00510D4A9
:1015D000306840F480703060FFF7D4FA009005E086
:1015E000FFF7D0FA0099401A022850D83068C00599
:1015F000F6D55E4EA0686C3601280FD005283068FD
:1016000010D020F001003060306820F0040030601D
:10161000A068B8B1FFF7B6FA00900FE0306840F06C
:101620000100F4E740F004003060F7E7FFF7AAFAA2
:101630000099411A41F28830814266D830688007AB
:10164000F4D50EE0FFF79EFA009007E0FFF79AFA54
:101650000099411A41F28830814256D8306880079B
:10166000F4D42FB1DBF8001021F08051CBF800103A
:10167000A069C8B33D49091D0968C1F38101022968
:101680004AD00228504607D0C8F8600000E03CE08D
:10169000FFF778FA04463BE04746C8F86000FFF7DA
:1016A00071FA064605E000BFFFF76CFA801B0228BE
:1016B0002BD828688001F7D4D4E907010843A16A30
:1016C0002E4A490802EB0141626A41EA821108434D
:1016D00094F82C1040EA0161C9F800100120386626
:1016E000FFF750FA044606E03EE000BFFFF74AFA73
:1016F000001B022809D828688001F7D534E000BF14
:10170000FFF740FA001B022802D90320BDE8F88F3A
:1017100028688001F4D427E00128F7D0D9F8000028
:10172000E26900F4800191421CD1226A00F03F017D
:10173000914217D147F6C071626A0140B1EB821F36
:1017400010D1A26A4FF0FF3300F4403103EB520294
:10175000B1EB024F06D194F82C1000F07060B0EBA2
:10176000016F01D00120D1E70020CFE7043802400B
:1017700000004742800E4742007000400000FFFF1B
:1017800010B5401EB0F1807F01D3012010BD4FF095
:10179000E02460610F21601701F0E1F80020A061F2
:1017A00007202061002010BD70B590F83C20012A70
:1017B0002CD0012480F83C40022280F83D200368B0
:1017C0005A689D6822F070060A6832435A60104BCE
:1017D00002689A420ED0B2F1804F0BD00D4B9A4264
:1017E00008D00D4B9A4205D00C4B9A4202D00C4BBC
:1017F0009A4204D1496825F080031943916080F82A
:101800003D40002180F83C10084670BD022070BDAC
:10181000000001400004004000080040000C0040AF
:1018200000400140F0B587B0044614216846FEF739
:1018300049FE2068002420490225204EB0F1804F47
:1018400016D01F4A904211D1086840F0020008608B
:101850000868694600F002000590C0200090CDE9BC
:1018600001543046CDE90345FFF796F807B0F0BDC7
:10187000086840F001000860086800F00100059069
:10188000086840F0020008600868012700F00200C4
:10189000059020200090CDE90154CDE90347694629
:1018A0000848FFF779F8B8020090CDE90154CDE976
:1018B000034769463046D7E730380240000402400B
:1018C000000800400000024070B5044690F83C005B
:1018D00000260D4601280FD0012084F83C006AB193
:1018E000042A1DD0082A2FD00C2A3FD00126002020
:1018F00084F83C00304670BD022070BD206800F0C6
:101900008BFF2068816941F008018161206881694D
:1019100021F004018161206881692A69114311E085
:10192000206800F0A1FF2068816941F400618161B5
:101930002068816921F480618161206881692A6958
:1019400041EA02218161D2E7206800F0B9FF2068F6
:10195000C16941F00801C1612068C16921F0040139
:10196000C1612068C1692A69114311E0206800F053
:10197000D3FF2068C16941F40061C1612068C16979
:1019800021F48061C1612068C1692A6941EA0221AC
:10199000C161ACE710B5040003D094F83D0010B16C
:1019A00007E0012010BD002084F83C00204600F034
:1019B0001FF8022084F83D00211D206800F0E0FEA1
:1019C000012084F8460084F83E0084F83F0084F843
:1019D000400084F8410084F8420084F8430084F811
:1019E000440084F8450084F83D00002010BD00004C
:1019F00008B501680B48B1F1804F0BD00A4A9142FB
:101A000007D1016841F004010160006800F00400A2
:101A1000009008BD016841F001010160006800F01C
:101A20000100F5E74038024000080040FEE70000F2
:101A30000148FFF7AFB80000240100200148FFF77C
:101A400006B900002401002038B5806B002190F811
:101A50003D202B4B46F2A8141B68B3FBF4F3C3EBF9
:101A6000C30303EB830300933BB15B1E0093036846
:101A70001B689B0505D5009BF6E7036C43F020032C
:101A80000364436B03B1D963836B03B1D963036808
:101A90001C6824F480641C604185436B03B11965A4
:101AA000836B03B1196503681C6824F001041C6092
:101AB00090F83D402023602C0BD0282434EA020209
:101AC0000FD080F83D3080F83E1000BFFFF7D7F907
:101AD00038BD80F83D3080F83E100164FFF758F8BB
:101AE00038BD0268136843F001031360026813688D
:101AF00043F480631360016380F83D40E6E7000033
:101B00001400002070B5044690F83D0094F83E1093
:101B1000102901D0402906D1222804D121680A6861
:101B200022F400620A60282131EA00024FF0000529
:101B30004FF0200626D021684968090505D46028A1
:101B400003D084F83D6084F83E50256320684168E6
:101B5000090537D5416821F400614160606B90F858
:101B600035203C49012A11D00165606BFEF7C5FDA7
:101B700038B32068016821F00101016084F83D60FC
:101B8000606B1CE0256384F83D10DFE7A06B016506
:101B9000A06BFEF7B2FDA0B120684169C9434906B8
:101BA00005D40069616A0870606A401C6062206840
:101BB000016821F00101016084F83D60A06B016DB6
:101BC000884710E094F83D10602910D04169C9435E
:101BD000490605D40069616A0870606A401C606249
:101BE0002046FFF74CF9206CC1071CD115E084F8A2
:101BF0003D6025644169C943490605D40069616AAD
:101C00000870606A401C60622068016821F0010170
:101C100001602046FEF7BCFFE5E7810703D44107DA
:101C200001D4000704D52068416821F4E0614160D7
:101C300094F83D00216C49070BD5282809D10648A6
:101C4000E062256384F83D6084F83E502046FFF74B
:101C5000DBF970BD491A00080000FFFF10B5C26A29
:101C6000438D0168042B06D0438D032B08D0438D90
:101C7000022B1DD012E04A6822F480624A600CE018
:101C80004B6823F480634B60042A06D0022A04D0F8
:101C900001680A6822F480620A6001680969426A80
:101CA0001170416A491C4162418D491E418510BD38
:101CB000012A30D0102A2ED0042A30D0022A2ED069
:101CC0000A6842F400720A6001680969426A117088
:101CD000416A491C4162428D521E42850268126966
:101CE0000A70416A491C4162418D491E4185016863
:101CF0004A6822F440724A60202180F83D1090F832
:101D00003E200021402A80F83E100CD012210163B1
:101D1000FFF77BF910BD0A6822F48062D3E70A68F6
:101D200042F48062CFE70163FFF771F910BD000054
:101D300038B590F83D1022290FD1418D03290DD9D6
:101D400001680969426A1170416A491C4162418D0A
:101D5000491E4185418D032906D038BDC26A022A39
:101D600002D0012906D029B10068416821F48061C0
:101D7000416038BD274946F2A81300220968B1FB2B
:101D8000F3F101EB8101009101682023009C641EA6
:101D9000009422D00C68A405F8D40C6824F4806464
:101DA0000C6001684C6824F4E0644C6001680969C7
:101DB000446A2170416A491C4162418D491E418536
:101DC00080F83D3090F83E1080F83E2040291DD02C
:101DD00012210163FFF719F938BD046C44F02004A7
:101DE00004644C6824F4E0644C6001680969446A46
:101DF0002170416A491C4162418D491E418580F82C
:101E00003D3080F83E20FFF73AF838BD0263FFF717
:101E1000FEF838BD1400002010B5C26A90F83D10DD
:101E200021290BD1418D51B1416A026809781161B4
:101E3000416A491C4162418D491E418510BD2023E4
:101E40000021082A13D0202A11D012F5803F0ED08D
:101E50000268546824F4E06454601122026380F83C
:101E60003E1080F83D3000BFFFF7D0F810BD02688B
:101E7000546824F4E06454600268146844F4007404
:101E80001460016380F83D3090F83E2080F83E10E9
:101E9000402AE9D1FFF7BCF810BD000010B590F85A
:101EA0003D1090F83E30C26A048DB4B1212903D0B0
:101EB000402B11D122290FD1418DE1B390F83E1072
:101EC000402942D0416A026809781161416A491C7F
:101ED0004162418D491E418510BD2129E8D1202351
:101EE0000021082A13D0202A11D012F5803F0ED0ED
:101EF0000268546824F4E06454601122026380F89C
:101F00003E1080F83D3000BFFFF780F810BD02683A
:101F1000546824F4E06454600268146844F4007463
:101F20001460016380F83D3090F83E2080F83E1048
:101F3000402AE9D100E002E0FFF76AF810BD00682E
:101F4000416821F48061416010BDBDE8104000F09F
:101F5000D3B8000078B590F83E50C26A036B90F891
:101F60003D6000240168222E7AD1066D0EB9402D05
:101F700076D0056D1DB90569B5F5404F09D0458D81
:101F800005B3468D384D012E0ED0438D022B3AD02D
:101F90005DE04A698A6900920A6842F480720A60C8
:101FA000016D491C016578BDAA4213D10A6822F46B
:101FB00080620A6001684A68120503D50A6822F443
:101FC000806216E04A698A6900920A6842F40072E7
:101FD0000A6039E0082A10D0202A0ED0122B0AD02D
:101FE000042A03D0022A01D0102AE7D10A6842F459
:101FF00080620A6024E0012AE0D00A6822F480624C
:102000000A600168DEE7042A21D0022A1FD0102AC4
:102010001DD00B6823F480630B6001680B6843F4E8
:1020200000630B6001684B681B0509D5AA4212D0FA
:10203000012A10D0082A0ED0102A0CD0202A0AD04B
:1020400001684A6989690091046578BD08E00B68F8
:1020500043F48063E5E74A6842F480524A60EFE760
:10206000486988690090F0E70000FFFF90F83E1093
:10207000402910D00169B1F5804F19D0016DA9B385
:10208000016D012910D1416C5FF0F10201F4407142
:1020900042EAD11106E0016D0029416C05D0C9B2B8
:1020A00041F0010100680161704701F0FE01F9E7AC
:1020B00090F83D102129416C09D0C9B241F00101CD
:1020C00002681161416B29B1C96B49B902E001F0A5
:1020D000FE01F5E7816B0029E6D0C96B0029E3D04A
:1020E0000068416841F4006141607047FFE7416C5E
:1020F000F02201F44071CBE710B590F83D10026D6D
:1021000022B3026D012A2FD0026D022A1DD122298D
:102110002FD0428D0AB1212933D0428D002A14D10B
:10212000212912D101684A6822F4E0624A600168FC
:102130000A6842F400720A6000210163202280F8DC
:102140003D2080F83E10FEF763FF10BDC16C0129F1
:10215000816C02D0C1F3072108E00268C9B21161A5
:10216000016D891C016510BD816CC9B202681161E5
:1021700004E001680A6842F480720A60016D491C3B
:10218000F0E7416A026809781161416A491C4162BD
:10219000418D491E418510BD38B50C4690F83D2053
:1021A00000212825954302680B4605D051699169A5
:1021B000009180F83C3038BD556825F48065556045
:1021C000E243540700D50121120601D5828900E0BF
:1021D000028B80F83C3092B2FEF7DBFC38BD000089
:1021E0002DE9F04190F83D40C26A002320261C4FA3
:1021F00001686FF48065082A01D0202A01D1282CBB
:1022000004D0212C16D04D61BDE8F081C7624A6828
:1022100022F4E0624A6001684D6101680A6822F4B4
:1022200080620A60036380F83D6080F83E30FEF70C
:10223000EBFEE9E7C7622122026380F83D6080F887
:102240003E304A6822F4E0624A6001684D610168EC
:102250000A6822F480620A60FEF761FFD4E700009A
:102260000000FFFFF8B590F83D6004460068416843
:1022700021F4E06141602068002541690091016816
:1022800041F0010101602068016821F48061016072
:1022900020684168090520D5474F222E48D02A2EB4
:1022A00046D0616B096849686185618D19B1216CFF
:1022B00041F004012164416821F400614160606BD8
:1022C000FEF72DFA012808D0606B0765606BFEF7FA
:1022D00014FA10B1606B016D8847608D08B32068F7
:1022E0004169C943490708D40069616A0870606A96
:1022F000401C6062608D401E608520684169C94352
:10230000490608D40069616A0870606A401C60620E
:10231000608D401E6085608D18B1206C40F0040017
:102320002064206C00B32046BDE8F840FFF7EABB0C
:10233000A16B096849686185618D19B1216C41F013
:1023400004012164416821F400614160A06BFEF743
:10235000E6F90128C1D0A06B0765A06BFEF7CDF9A7
:102360000028BAD0A06BB6E72A2E06D12563282014
:1023700084F83D002046FEF7D1FE94F83D10202061
:1023800028290DD0216B222901D0222E07D12563C7
:1023900084F83D0084F83E502046FEF7BFFEF8BDAD
:1023A0000649E162256384F83D0084F83E502046EA
:1023B000FEF72AFEF8BD0000491A00080000FFFFE2
:1023C0000D4808B5016841F4001101600068002261
:1023D00000F40010009005210B20FEF70DFF0B20EC
:1023E000FEF7FCFE002205210C20FEF705FFBDE8EC
:1023F00008400C20FEF7F2BE3038024010B5074A04
:102400000021074800F09AFB064C044A0021606056
:10241000243A054800F092FB206010BD0C430008F0
:10242000BB26000800000020F30600082DE9F04F4D
:1024300087B014216846FEF745F84C48002401682F
:1024400041F004010160016801F004010591016897
:1024500041F080010160016801F08001059101688F
:1024600041F001010160016801F00101059101687D
:1024700041F00201016000683D4E00F002004FF49F
:1024800060490590002249463046FEF775FBDFF8AB
:10249000E4B040F2C135002229465846FEF76CFBF5
:1024A00041F2330A002251463348FEF765FB01270B
:1024B000CDF80090CDE90174694630460394FEF7EB
:1024C0006BFA0095CDE90174694658460394FEF70E
:1024D00063FA0C200225CDE9000502AA03264FF07D
:1024E000070882E8500169465846FEF755FA102061
:1024F000CDE90004694658460294FEF74DFACDF83E
:1025000000A0CDE9017469461B480394FEF744FA24
:102510000520CDF80090CDE90360CDE9015469466E
:102520001548FEF739FA4FF4E050CDE90005029462
:102530000A20CDE9036069465846FEF72DFAA80344
:10254000CDE9000502AA694682E850015846FEF727
:1025500023FA0820CDE9000502AA694682E8500165
:102560000548FEF719FA07B0BDE8F08F3038024091
:102570000008024000000240000402400D4810B56F
:102580000B4901600C49416000214FF48042816099
:10259000C0E9031241618161C1610162FEF770FC13
:1025A000002803D0BDE81040FEF7A1B810BD000020
:1025B0000054004024010020A086010010B58AB01C
:1025C000002407941C2168460894FDF77BFF1948F6
:1025D0004FF08041C0E90014FF21C0E902410461CD
:1025E0008461FFF7D7F908B1FEF781F8079407A9CE
:1025F00010480894FFF7D8F808B1FEF778F8602083
:10260000CDE900040294002269460A480494FFF7C9
:102610005BF908B1FEF76BF8082269460548FFF739
:1026200053F908B1FEF763F80248FFF7FBF80AB068
:1026300010BD00003802002010B58AB000240794B5
:102640001C2168460894FDF73DFF19481749C0E969
:102650000014FF21C0E9024104618461FFF79AF987
:1026600008B1FEF744F8079407A911480894FFF74A
:102670009BF808B1FEF73BF86020CDE90004029416
:10268000002269460A480494FFF71EF908B1FEF7D4
:102690002EF8042269460648FFF716F908B1FEF73E
:1026A00026F80348FFF7BEF80AB010BD0008004046
:1026B000800200207047FEE7FEE7012000F003FAE9
:1026C000FBE710B5FEF72CFD01F052FC012803D00A
:1026D000BDE8104001F080B910BD000030B593B0E6
:1026E00030216846FDF7EEFE14210CA8FDF7EAFE46
:1026F0001D480024016841F080510160006800F02D
:10270000805011901948016841F44041016000680F
:1027100006AA00F440401190032000904FF480304E
:1027200001900120039010200490022041050F2504
:1027300082E823009021CDE9091005200B9068461E
:10274000FEF768FE08B172B6FEE7CDE90C540E94B0
:102750000F9400210CA81094FEF780FD002801D0F2
:1027600072B6FEE713B030BD403802400070004042
:102770000248016841F470010160704788ED00E093
:10278000F0B502681D4B1E4C9F031E4D1E4E984215
:1027900007D0B84205D0A04203D0A84201D0B04231
:1027A00004D122F0700C4A6842EA0C02984210D020
:1027B000B8420ED0A0420CD0A8420AD0B04208D0F5
:1027C000124CA04205D0124CA04202D0114CA042A3
:1027D00003D122F44074CA6822434C6922F080027B
:1027E000224302608A68C2620A688262984201D10A
:1027F0000969016301214161F0BD00000000014051
:102800000004004000080040000C0040004001406F
:10281000004401400048014030B5026A22F0010244
:102820000262026A4368846924F073050C682C43D1
:1028300022F002058A682A430A4DA8420BD122F0F1
:102840000805CA6823F440732A434D6922F0040244
:102850001D438B692B434360846149684163026275
:1028600030BD00000000014030B5026A22F01002C5
:102870000262026A436884690D6824F4E64444EA0B
:1028800005248D6822F0200242EA05120B4DA84271
:102890000ED1CD6822F0800242EA05124D6923F480
:1028A000406343EA85038D6922F0400243EA8503D1
:1028B0004360846149688163026230BD0000014069
:1028C00030B5026A22F480720262036A4268C46907
:1028D00023F4007324F073050C682C438D6843EADD
:1028E00005230C4DA8420ED1CD6823F4006343EAC2
:1028F00005234D6922F4405242EA05128D6923F402
:10290000806342EA05124260C4614968C1630362A0
:1029100030BD00000000014030B5026A22F4805250
:102920000262046A4268C3690D6823F4E64343EA1D
:1029300005238D6824F4005444EA0534064DA8426A
:1029400004D14D6922F4804242EA85124260C3619B
:1029500049680164046230BD00000140FEE70907D8
:10296000090E002804DB00F1E02080F80014704715
:1029700000F00F0000F1E02080F8141D7047000007
:1029800010B5094800F06EFD0020074A01460C32E0
:1029900002EB0013401C19700828F9D3BDE8104061
:1029A000014800F075BD00009800002010B504003B
:1029B00006D0094800F056FD20680178012902D0B0
:1029C00072B6FDF794FE001D00F04CFDBDE810400E
:1029D000014800F05DBD00009800002010B5040023
:1029E00006D0084800F03EFD20680178012902D099
:1029F00072B6FDF77CFE00210170BDE81040014871
:102A000000F046BD9800002010B5040010D0154815
:102A100000F028FD1348002110F10C0000EB01121A
:102A200012783AB1491C0829F8D30E4800F030FD5D
:102A3000002010BD00EB0110012120600170216811
:102A4000091D0CD00020024641F82020401C02281D
:102A5000FAD30A72034800F01BFD012010BD72B6C4
:102A6000FDF745FE9800002010B5040006D0094887
:102A700000F0F8FC20680178012902D072B6FDF759
:102A800036FE001D00F004FDBDE81040014800F0D6
:102A9000FFBC000098000020FEF74AFBFFF71EFE77
:102AA000FFF7C4FCFFF78CFCFFF788FDFFF7C4FDC0
:102AB000FFF764FDFFF7FEFD00F012F8FFF79EFC44
:102AC00000F020F8FEE710B5EFF3058111B16FF0CB
:102AD000050403E0002408B100F01EFE204610BDEE
:102AE000EFF3058010B16FF00500704704480168EE
:102AF00011B14FF0FF307047012101600020704795
:102B00006800002010B5EFF3058010B16FF00500EC
:102B100010BD08480168012902D04FF0FF3010BDF8
:102B2000054A002182F8141D0221016000F05CFEBC
:102B3000002010BD680000200BE000E02DE9FF41FF
:102B40004FEA01034FF00005EFF30581039549BB00
:102B500040B38027182100244AB3166806B13446D2
:102B600096691EB13146761E382E02D21679F607C6
:102B700003D0002004B0BDE8F081566906B1B70863
:102B8000D2F808C0BCF1000F0DD0D5685C2D18D369
:102B900012693AB136B18DE806103A46214601F085
:102BA000BCF903900DE0D6685EB912694AB903AA70
:102BB000CDE90012BAB2214601F082F9012800D015
:102BC00003950398D6E700002DE9F041134C0F461A
:102BD0000546E6682068001D00F06AFC681C07D105
:102BE00037B12168BDE8F0410D48091D00F0B0BCC7
:102BF00020683544B5424560216805D2A06BBDE828
:102C0000F041091D00F08CBC606B091D00F088FCD0
:102C1000A06A854200D2A562BDE8F08118000020BC
:102C2000B80700202DE9F041054600F09DFC2D4C31
:102C3000A068401CA06020682B4F10B1606930B3C1
:102C40002BE02560A068012827D1002606EB86002E
:102C500007EB800000F056FC761C382EF6D3234894
:102C600000F050FC2148143000F04CFC1F48283084
:102C700000F048FC1D483C3000F044FC1B4850303C
:102C800000F040FC194860631430A06305E0206840
:102C9000E96AC06A884200D82560606A401C6062A8
:102CA0006864E86A2169884200D9206100EB8000ED
:102CB00007EB8000291D00F04BFC00F075FC6069FB
:102CC00000280CD02068E96AC06A884207D2084907
:102CD0004FF080500860BFF34F8FBFF36F8FBDE898
:102CE000F081000018000020080300206807002081
:102CF00004ED00E038B500F037FC104C2068C8B98E
:102D00000F4800F0FFFB0E48143000F0FBFB0C48AE
:102D1000E060143020610A4B0020F03B009003F18A
:102D2000500210210A2000F06DFE206010B105A1B4
:102D300000F0BCFCBDE8384000F036BC5400002078
:102D4000BC080020546D72510000000030B4026CC9
:102D50000B46002A0BD0C1681144C1608468A142AF
:102D600001D30168C16030BC1846FDF75EBB30BCC2
:102D700070472DE9F041856B174604460026026C2A
:102D800082B1C7B1E068FDF750FBE168206C091A19
:102D9000E1602268914202D2A168081AE060022F25
:102DA00016D017E02068A8B9A06801F059F90646C6
:102DB0000020A0600EE06068FDF737FB216C6068C2
:102DC00008446060A168884204D32068606001E024
:102DD00005B16D1E6D1CA5633046BDE8F08110B5D0
:102DE000044690F8590058B101280CD002280FD0A1
:102DF000502080F31188BFF34F8FBFF36F8FFEE732
:102E0000206B00F0E5FB2046BDE8104000F0E0BB81
:102E100010BD000010484FF47051420706D0C01D8D
:102E20000D4920F00700411AC1F570510B4A0023EB
:102E30000144C2E900030839183A21F00701116082
:102E40004B600B600B1AC0E9001393604FF0004019
:102E500053605061704700009C0F002084000020E8
:102E6000144E154CA6F29C474FF08058DFF84C905A
:102E700012E000BF00F078FBF068C568281D00F084
:102E800017FBA068401EA0606068401E606000F0F4
:102E90008BFB2846FFF7A3FF60680028EAD138685B
:102EA0000128F9D9C9F80080BFF34F8FBFF36F8FA6
:102EB000F2E70000A40700201800002004ED00E065
:102EC00070B51D46049C51B1C4F80020C4E90F013F
:102ED0000121204600F0CAFD84F84C5070BD2460EA
:102EE000F4E700002DE9F05F8846DDE90B94154614
:102EF000834691009A460A9EA522206BFDF7DAFAD6
:102F00006FF00301206B01EB8501084420F00707F7
:102F1000780707D0502080F31188BFF34F8FBFF39D
:102F20006F8FFEE70025B8F1000F0FD05FF00000B3
:102F3000221818F8001082F8341018F8001011B197
:102F4000401C1028F4D384F8435001E084F8345036
:102F5000382E00D33726E662C4E91365201D00F041
:102F6000DCFA04F1180000F0D8FA2461C6F1380048
:102F70006462A061656584F85850524659463846E7
:102F800000F05AFA2060B9F1000F01D0C9F80040F2
:102F9000BDE8F09F30B5114900E011460A68824251
:102FA000FBD34B685C18844203D1406818444860E6
:102FB000084643681C18944209D1084C183C246800
:102FC000A24209D052681A4442600A68126802603C
:102FD000814200D0086030BD0460F9E78400002021
:102FE00070B5002441600B4D0061914206D8D11AA2
:102FF0008269914206D2011D286907E09A4203D2F4
:10300000994201D3012403E0011DE86800F088FA29
:10301000204670BD5400002010B5044600F0A4FA0C
:10302000A06B28B15FF0000400F0BEFA204610BD8E
:103030000124F9E730B589B03C4D6EE004980028D2
:1030400006DADDE90601059A90470498002864DB5A
:10305000069C606910B1201D00F02AFA03A800F058
:10306000D7F8024604980A2857D2DFE800F0050591
:10307000052D334A05052D3394F8280040F0010052
:1030800084F828000599A069059B01442046FFF7B4
:10309000A7FF68B3216A2046884794F828004007B4
:1030A0003BD5002000900598A169002342181946DD
:1030B000204601F0DFF8D8B9502080F31188BFF323
:1030C0004F8FBFF36F8FFEE714F8280F20F0010039
:1030D000207022E094F8280040F0010084F82800D5
:1030E0000598A06128B1811813462046FFF778FFA4
:1030F00013E0502080F31188BFF34F8FBFF36F8F21
:10310000FEE794F82800810703D4204600F060FA17
:1031100003E020F0010084F82800002204A92868B8
:1031200000F0F8FD002889D109B030BD540000201E
:103130002DE9FC410F46054600F09AFB01A800F07E
:1031400067F80446019818B101F002F8BDE8FC8167
:10315000254EAFB130690068D0B30027291B3A462D
:10316000306800F0B7FA00F0F3FF0028EED11F49F5
:103170004FF080500860BFF34F8FBFF36F8FE5E7CC
:10318000A542EBD800F0E4FFF0682746C068C468A9
:10319000201D00F08DF994F82800410719D5A06989
:1031A0002B4641193A462046FFF71AFFA8B10020E6
:1031B0000346014600902A46204601F05BF860B9BC
:1031C000502080F31188BFF34F8FBFF36F8FFEE75E
:1031D00007E020F0010084F82800216A2046884793
:1031E000B4E70127BAE700005400002004ED00E036
:1031F0000648416B096829B1416BC968C9684968CB
:10320000816270474FF0FF31FAE70000180000209C
:1032100070B5054600F0BAFE064E0446B06884421A
:1032200003D200F009F8012000E0002028602046C9
:10323000B46070BD54000020F8B5194D20E0C0689E
:10324000C4680668201D00F033F9216A20468847CB
:1032500094F82800400713D5A0693044B04206D93D
:1032600024616060211DE86800F05AF908E0002040
:103270000346014600903246204600F0FBFF38B17D
:10328000E86801680029DAD12969C5E90310F8BDA9
:10329000502080F31188BFF34F8FBFF36F8FFEE78D
:1032A0005400002008484068401C4FF0500080F354
:1032B000118804D0BFF34F8FBFF36F8FFEE7BFF3CA
:1032C0004F8FBFF36F8FFEE78C000020074CE06844
:1032D000016841B1C0680021D0F80000FFF728FF65
:1032E000FFF7A8FEF3E701210020F7E754000020D4
:1032F0002DE9F041044600F037F994F9455004F106
:10330000240609E0606A48B1304600F0E9FE08B1E1
:1033100000F030FA6D1E6DB2002DF3DC4FF0FF3679
:1033200084F8456000F040F900F01EF994F944502B
:1033300004F1100709E0206948B1384600F0D0FEDA
:1033400008B100F017FA6D1E6DB2002DF3DC84F8A1
:103350004460BDE8F04100F027B900002DE9F041DC
:103360000546002700F084FA324E306808B9FFF7AE
:1033700051FD706905424ED1C5B3083568070ED0BE
:1033800005F00700C0F108000544680707D0502089
:1033900080F31188BFF34F8FBFF36F8FFEE72DB31C
:1033A0007068854237D82348183001460C6801E020
:1033B00020460C466168A94202D221680029F7D153
:1033C00031688C4227D0076821680160606808373F
:1033D000411B10290FD96019420708D0502080F3F3
:1033E0001188BFF34F8FBFF36F8FFEE713E041608B
:1033F0006560FFF7CFFD61687068401A7060B26861
:10340000904200D2B060706901430020C4E900011D
:10341000F068401CF06000F09BFE780707D0502059
:1034200080F31188BFF34F8FBFF36F8FFEE73846ED
:10343000BDE8F0816C00002010B5031F4FF08074D0
:103440001C601B1F21F001011960191F044B0B6048
:1034500014390A60091F6FF0020244380A6010BD77
:10346000A532000810B510B1017A022902D372B654
:10347000FDF73DF95022EFF3118382F31188BFF37A
:103480004F8FBFF36F8F8A00491C0172835010BDAC
:1034900010B528B1017A491EC9B20172022902D3BE
:1034A00072B6FDF724F950F8210080F3118810BDA1
:1034B000D0E9013201699A60D0E901235A604A6873
:1034C000824201D182684A60002202610868401E7F
:1034D0000860086870470000034B036003F15C005C
:1034E0000860802010607047E4080020044B0360EF
:1034F00003F15C0008604FF48070106070470000BA
:10350000400B002000F108014FF0FF32C0E901122A
:10351000C1600161002101607047002101617047B5
:1035200030B50B685A1C02D000F1080202E00269B3
:1035300004E02246546825689D42FAD953684B60DE
:1035400099608A60516008610168491C016030BD62
:1035500042684A6093688B60936859609160086123
:103560000168491C01607047502080F31188BFF347
:103570004F8FBFF36F8F0A494868401C486001288D
:103580000CD10848006810F0FF0F07D0502080F3DE
:103590001188BFF34F8FBFF36F8FFEE770470000B6
:1035A0008C00002004ED00E00849486828B1401E66
:1035B000486001D180F311887047502080F3118852
:1035C000BFF34F8FBFF36F8FFEE700008C0000202A
:1035D00070B500282AD0164DA0F10804606869690A
:1035E000084207D1502080F31188BFF34F8FBFF3FB
:1035F0006F8FFEE722683AB1502080F31188BFF345
:103600004F8FBFF36F8FFEE78843606000F030F9A3
:1036100060686968084468602046FFF7BBFC286959
:10362000401C2861BDE8704000F092BD70BD0000F4
:103630006C0000204FF0E02000210161816105490C
:103640004FF47A720968B1FBF2F1491E416107211A
:10365000016170471400002010B5FCF74BFE1149C2
:1036600010280ED300F1E02090F8F0030A78904281
:1036700007D2502080F31188BFF34F8FBFF36F8FB5
:10368000FEE709480068896800F4E060884207D9CD
:10369000502080F31188BFF34F8FBFF36F8FFEE789
:1036A00010BD00008C0000200CED00E010B5084BB0
:1036B000002200BF53F832401CB1521C082AF9D333
:1036C00010BD43F8321003EBC201486010BD00008A
:1036D000C802002070B515460E460446FFF744FFA9
:1036E00094F944100020491C01D184F8440094F955
:1036F0004510491C01D184F84500FFF755FFA06B28
:1037000028B92A46314604F1240000F051F8204639
:10371000BDE87040FFF7ECBD10B5020014D00F48B3
:10372000006B38B1502080F31188BFF34F8FBFF387
:103730006F8FFEE700F09CF800211046FFF744FA77
:1037400000F006FD002807D105494FF080500860C1
:10375000BFF34F8FBFF36F8F10BD00001800002024
:1037600004ED00E002490A6A0260C96841607047DE
:103770001800002001490120C8617047180000208E
:1037800010B50C4650B1094909681831FFF7C8FE59
:103790002046BDE810400121FFF716BA502080F303
:1037A0001188BFF34F8FBFF36F8FFEE71800002023
:1037B00070B514460D4668B10A4909681831FFF71B
:1037C000C7FE0CB14FF0FF3521462846BDE87040DA
:1037D000FFF7FAB9502080F31188BFF34F8FBFF382
:1037E0006F8FFEE71800002030B587B000240394E7
:1037F00005AA04A903A80494FFF76EFEDDE90301FE
:103800000094CDE90110002315A11748059A00F096
:1038100084FB164D0028E8621FD000F0FBFC012855
:1038200009D0401C19D1502080F31188BFF34F8F6D
:10383000BFF36F8FFEE7502080F31188BFF34F8FE7
:10384000BFF36F8F4FF0FF30A86201206861EC601A
:1038500007B0BDE8304000F045B807B030BD00000B
:1038600049444C4500000000612E0008180000206B
:103870000248016B491C01637047000018000020DA
:10388000164810B5016B11B10121C16110BD0021B5
:10389000C1610169124A01E0B9B1491E01EB81031E
:1038A00052F82330002BF7D001EB810302EB8302A7
:1038B00002F1080453685B685360A34201D15B685E
:1038C0005360DA680260016110BD502080F31188F6
:1038D000BFF34F8FBFF36F8FFEE70000180000208B
:1038E000080300201CB537480168374A914207D1C8
:1038F000502080F31188BFF34F8FBFF36F8FFEE727
:1039000000683149491E884207D1502080F3118850
:10391000BFF34F8FBFF36F8FFEE72C4908780190FC
:10392000FF20087008788DF800009DF800009DF8D1
:10393000002000F0F000904207D0502080F3118862
:10394000BFF34F8FBFF36F8FFEE79DF80000204C51
:1039500000F0500020700720A06005E09DF80020D6
:1039600052008DF80020401E9DF800201206F5D46C
:10397000A060032807D0502080F31188BFF34F8F39
:10398000BFF36F8FFEE74FF44070A060019808709E
:103990000C482030016841F470010160016841F079
:1039A00070410160FFF746FE00206060FCF76AFC92
:1039B0000848016841F040410160FCF74FFC0020DD
:1039C0001CBD000000ED00E071C20F4100E400E00A
:1039D0008C00002034EF00E010B5502080F31188F7
:1039E000BFF34F8FBFF36F8F00F0D6FA18B10449C1
:1039F0004FF080500860002080F3118810BD000057
:103A000004ED00E038B5049D18B153B1CAB181B1DD
:103A100020E0502080F31188BFF34F8FBFF36F8FEA
:103A2000FEE7502080F31188BFF34F8FBFF36F8FF5
:103A3000FEE7502080F31188BFF34F8FBFF36F8FE5
:103A4000FEE739B1502080F31188BFF34F8FBFF3E9
:103A50006F8FFEE750241C46012384F846302B4626
:103A60000094FFF72DFA204638BD000070B50D46D2
:103A7000040025D0FFF778FDD4E90F20216802FB70
:103A80000011A1600021A163216861600A46D4E9A8
:103A90000F01401E00FB0121E16021464FF0FF3085
:103AA00001F8440F487004F110008DB1FFF72AFDB2
:103AB00004F12400FFF726FDFFF776FD012070BD1D
:103AC000502080F31188BFF34F8FBFF36F8FFEE755
:103AD00021690029F0D000F003FB0028ECD0044954
:103AE0004FF080500860BFF34F8FBFF36F8FE3E755
:103AF00004ED00E02DE9FF4782B01D468A464FF0F5
:103B00000008040003D0BAF1000F08D011E05020E3
:103B100080F31188BFF34F8FBFF36F8FFEE7206CE8
:103B200038B1502080F31188BFF34F8FBFF36F8FF0
:103B3000FEE7022D0AD1E06B012807D0502080F368
:103B40001188BFF34F8FBFF36F8FFEE700F010FABD
:103B50003F4F4FF000094FF0805648B9049838B1F4
:103B6000502080F31188BFF34F8FBFF36F8FFEE7B4
:103B7000FFF7FAFCA06BE16B884207D3022D05D05A
:103B80000498D0B1B8F1000F1AD01EE02A46514671
:103B90002046FFF7EEF8616A19B104F1240000F045
:103BA0009FFA20B13E60BFF34F8FBFF36F8FFFF7D7
:103BB000FBFC012006B0BDE8F087FFF7F5FC22E032
:103BC0006846FFF7CFFD4FF00108FFF7EDFCFFF768
:103BD0004FFEFFF7C9FC94F94400401C01D184F862
:103BE000449094F94500401C01D184F84590FFF7BA
:103BF000DBFC04A9684600F029F930B12046FFF744
:103C000077FB00F0A5FA0020D4E7FFF7ADFCA06B2E
:103C1000E16B884213D1FFF7C7FC04F1100004994F
:103C2000FFF7AEFD2046FFF763FB00F091FA002896
:103C30009ED13E60BFF34F8FBFF36F8F98E7FFF7C2
:103C4000B3FC2046FFF754FB00F082FA90E7000037
:103C500004ED00E02DE9F0471F4690468946040038
:103C600003D0B9F1000F08D011E0502080F3118883
:103C7000BFF34F8FBFF36F8FFEE7206C38B150203A
:103C800080F31188BFF34F8FBFF36F8FFEE7022FD2
:103C90000AD1E06B012807D0502080F31188BFF3D0
:103CA0004F8FBFF36F8FFEE7FFF7D6FC5020EFF387
:103CB000118680F31188BFF34F8FBFF36F8FA06B16
:103CC000E16B884206D3022F04D0002086F31188CE
:103CD000BDE8F08794F94550A06B3A464946204626
:103CE000FFF747F8681C04D06D1C84F8455001208C
:103CF000ECE7606A0028FAD004F1240000F0F0F943
:103D00000028F4D0B8F1000FF1D00121C8F800105C
:103D1000EDE700002DE9F747002683B08A4604004E
:103D200003D0BAF1000F08D011E0502080F31188C1
:103D3000BFF34F8FBFF36F8FFEE7206C38B1502079
:103D400080F31188BFF34F8FBFF36F8FFEE700F052
:103D50000FF9DFF8F4804FF000094FF0805748B9B1
:103D6000059838B1502080F31188BFF34F8FBFF30F
:103D70006F8FFEE7FFF7F8FBA56BC5B151462046F4
:103D8000FEF7E4FF6D1EA563206950B104F1100039
:103D900000F0A6F928B1C8F80070BFF34F8FBFF349
:103DA0006F8FFFF701FC012006B0BDE8F087059892
:103DB00008B11EB106E0FFF7F7FB27E06846FFF702
:103DC000D1FC0126FFF7F0FBFFF752FDFFF7CCFB1C
:103DD00094F94400401C01D184F8449094F94500C2
:103DE000401C01D184F84590FFF7DEFB05A9684629
:103DF00000F02CF8002820460AD0FFF779FA00F0EE
:103E0000A7F92046FFF708F90028B3D00020CBE738
:103E1000FFF702F990B104F124000599FFF7B0FC17
:103E20002046FFF765FA00F093F90028A2D1C8F800
:103E30000070BFF34F8FBFF36F8F9BE72046FFF7F4
:103E400057FA00F085F995E704ED00E02DE9F0411F
:103E50000C46050011D0C4B1FFF786FB174BDA689A
:103E60006E682068911B471C17D02F681B6A9F4201
:103E700019D0964217D8012410E0502080F3118801
:103E8000BFF34F8FBFF36F8FFEE7502080F3118891
:103E9000BFF34F8FBFF36F8FFEE70024FFF784FB64
:103EA0002046BDE8F081884205D9401A20602846A6
:103EB000FFF758FCF1E700202060DCE71800002045
:103EC0002DE9FF5F8346DDE90E87994616468A464F
:103ED0009000FFF743FA05001CD05C20FFF73EFA84
:103EE000040014D00020256384F85900CDE9024075
:103EF000CDE900874B46324651465846FEF7F2FF61
:103F00002046FEF78FFE012004B0BDE8F09F284652
:103F1000FFF75EFB4FF0FF30F6E7F0B585B0DDE967
:103F20000B640A9DA6B1DCB15C27009726630226CC
:103F300084F85960002604AFCDE90246CDE9005768
:103F4000FEF7D0FF2046FEF76DFE049805B0F0BDE9
:103F5000502080F31188BFF34F8FBFF36F8FFEE7C0
:103F6000502080F31188BFF34F8FBFF36F8FFEE7B0
:103F70000548416919B1006B18B100207047012054
:103F80007047022070470000180000200148C068F8
:103F900070470000180000202DE9F0412E4C00274A
:103FA000206B28B1A069401CA0613846BDE8F081B3
:103FB000E668761CE66013D1606B006838B150206B
:103FC00080F31188BFF34F8FBFF36F8FFEE7606BF5
:103FD000A16B6163A063206A401C2062FFF708F9AF
:103FE000A06ADFF87880864209D3606B0068A0B1D0
:103FF000606BC068C5686868864211D2A06220689C
:10400000C06A00EB800158F82100012800D901277F
:10401000E0690028C9D00127C7E74FF0FF30EDE77E
:10402000281DFFF745FAA86A18B105F11800FFF737
:104030003FFAE86A2169884200D9206100EB8001DB
:1040400008EB8100291DFFF783FAE86A2168C96A35
:104050008842CAD30127C8E71800002008030020BF
:1040600070B504004FF0000133D01B4D2868844226
:1040700007D0502080F31188BFF34F8FBFF36F8FAD
:10408000FEE7206D38B1401E2065E36CE26A9A427B
:104090001FD040B11DE0502080F31188BFF34F8F37
:1040A000BFF36F8FFEE7201DFFF702FAE06CE062BE
:1040B000C0F13800A061E06A2969884200D928610E
:1040C000064900EB800001EB8000211DFFF740FA5C
:1040D0000121084670BD00001800002008030020E0
:1040E00070B5C068C46854B104F118000646FFF703
:1040F000DFF9144D286B50B13146134815E05020BC
:1041000080F31188BFF34F8FBFF36F8FFEE7201D41
:10411000FFF7CEF9E06A2969884200D928610B4986
:1041200000EB800001EB8000211DFFF711FAE06A2F
:104130002968C96A884202D90120E86170BD00205F
:1041400070BD000018000020900700200803002028
:104150002DE9F0472C4D00242746286B38B1FFF796
:1041600003FA286B401E2863286B40B146E05020BC
:1041700080F31188BFF34F8FBFF36F8FFEE7A968FD
:10418000224E0120D1B3A6F5916980463068E0B196
:10419000F068C46804F11800FFF78AF9201DFFF7E2
:1041A00087F9E06A2969884200D9286100EB80011B
:1041B00009EB8100211DFFF7CBF9E06A2968C96A84
:1041C0008842E3D3C5F81C80E0E70CB1FFF710F894
:1041D000AC694CB14FEA0806FFF7DEFE00B1EE61B4
:1041E000641EF9D10020A861E86938B108490127A7
:1041F00038070860BFF34F8FBFF36F8FFFF7D4F915
:104200003846BDE8F0870000180000209007002025
:1042100004ED00E010B586B0FEF76CFD114C20688F
:10422000B8B100200390049005AA04A903A8FFF7E1
:104230005DF9DDE9032102208DE8070000230AA1D2
:104240000B48059AFFF769FE606010B106B00120C7
:1042500010BD502080F31188BFF34F8FBFF36F8FD5
:10426000FEE7000054000020546D72205376630076
:10427000CD3200082DE9FF411E46134602000A9D7B
:104280004FF0000016D0144C2768002F0FD0CDE956
:1042900000130292062917DAFFF76AFE02284FF090
:1042A00000030FD0002269462068FFF723FC04B00A
:1042B000BDE8F081502080F31188BFF34F8FBFF32A
:1042C0006F8FFEE72A46EEE70023324669463846FE
:1042D000FFF7C0FCEBE70000540000204FF04070F7
:1042E000E1EE100A70470000504300080000000093
:1042F00000000000000000000000000000020000BC
:1043000018000000000000000000000060430008EA
:10431000000000000000000000000000000000009D
:104320000002000018000000000000000000000073
:104330000006101600061016000000000000000025
:10434000010203040607080900000000010203043B
:10435000666C696768745374617475650000000069
:1043600064656661756C745461736B0090430008FA
:104370000000002098000000D40100082844000834
:104380009800002068510000F0010008F5E5FFFFEB
:10439000000000000000000001000000100000000C
:1043A000000000000024F4000000000000000000F5
:1043B00000000000000000000000000000000000FD
:1043C00000000000000000000000000000000000ED
:1043D00000000000000000000000000000000000DD
:1043E00000000000000000000000000000000000CD
:1043F00000000000000000000000000000000000BD
:1044000000000000000000000000000000000000AC
:10441000000000000000000000000000000000009C
:08442000AAAAAAAA00000000EC
:040000050800019955
:00000001FF
